:020000041400E6
:10000000F0790020D900001400F002F800F08AF81E
:100010000AA090E8000C82448344AAF10107DA4563
:1000200001D100F07FF8AFF2090EBAE80F0013F02B
:10003000010F18BFFB1A43F001031847F40000003A
:10004000240100000A444FF0000C10F8013B13F0AB
:10005000070408BF10F8014B1D1108BF10F8015B21
:10006000641E05D010F8016B641E01F8016BF9D114
:1000700013F0080F1EBF10F8014BAD1C0C1B09D16B
:100080006D1E58BF01F801CBFAD505E014F8016BDD
:1000900001F8016B6D1EF9D59142D6D3704700006F
:1000A000103A24BF78C878C1FAD8520724BF30C8A4
:1000B00030C144BF04680C60704700000023002476
:1000C00000250026103A28BF78C1FBD8520728BF68
:1000D00030C148BF0B607047DFF82C00016841F465
:1000E0007001016009480047FEE7FEE7FEE7FEE712
:1000F000FEE7FEE7FEE7FEE7FEE7FEE70448054908
:10010000054A064B7047000088ED00E00900001426
:10011000F00B0020F0790020F0730020F073002035
:100120007046704740F2DF1CC1F2000C60470000CF
:1001300060010014000000108C730100A000001486
:10014000EC74011400000020C00100004400001401
:100150003C750114C001002030780000BC00001480
:10016000F0790020D9000014E9000014EB0000141D
:10017000ED000014EF000014F10000145A5A5A5A0E
:10018000000000000000000000000000F300001468
:10019000F500001400000000F7000014F90000143E
:1001A000FB00001485B20010FB000014FB000014DB
:1001B000FB000014FB000014FB000014FB00001403
:1001C000DDBC0010FB000014FB000014FB00001459
:1001D000FB000014FB000014FB000014FB000014E3
:1001E000FB000014FB000014E1570010FB0000149A
:1001F000FB000014FB000014FB000014995D0010CC
:1002000081610010FB000014FB000014FB000014CF
:10021000FB000014FB000014FB000014FB000014A2
:10022000FB000014FB000014FB000014FB00001492
:10023000FB000014FB000014FB000014FB00001482
:10024000FB000014FB000014FB000014FB00001472
:1002500000000000FB000014FB000014FB00001471
:1002600000000000FB000014FB000014FB00001461
:10027000FB0000146E2909F01784702909F05985D4
:10028000662912F03B81652912F03881672912F046
:1002900035816129AFF3008003681B0A28BF41F054
:1002A0008001692909F00880642909F00580752911
:1002B00009F002806F2909F0E784782909F0258583
:1002C000E92909F08184E42909F07E84F52909F0FF
:1002D0007B84EF2909F0E484F82909F02485036878
:1002E000DB0928BF41F08001632909F0DB8773290E
:1002F00009F0E087E32909F0EB87F32909F0F0879B
:10030000002070471FB512F0D2F89DE8030009F0F5
:10031000CFFA0AF075F804000020002111F08CFAE1
:10032000401C60600020002111F070FAE06009F0CC
:1003300077FA1FBD10B5002010F034FB10BD0AF095
:1003400032F81146FFF7DEFF00F01AF80AF00EF956
:1003500003B4FFF7EFFF03BC09F016FD30B58DB015
:1003600004460D462B4622463FA101A808F08EFF09
:10037000E0B201AA4FF47F0111F0CEF80DB030BD0C
:100380008EB041F27C623E493E480EF079FB3E4819
:10039000006800F0F1F905F079FC3B48006800F0D6
:1003A0002AFE0021394800F055FE01F0F0FC002142
:1003B000374800F04FFE0121364800F04BFE002682
:1003C000002717E0002008AB09AA0AA9009032A074
:1003D0000EF0C9F90446002C0BDBBDF828000228FA
:1003E00007D1BDF8240020B9BDF82000092800D1AC
:1003F0007F1C761C192EE5DB0FB90CF0C7FF00201F
:1004000009210222CDE90202009213460192CDE9B0
:10041000041023A2012120A00EF026F9032005F0EC
:100420009DFB01200D906FF0F9000C90FA200BAAB3
:100430000CA90B900DA80DF00FFB162545EA052021
:1004400040EA0540079007A80CF028FF00200D9017
:100450000DA80CF0D5FE23200D900DA80DF0FAFD8F
:1004600001E006F033FBFCE772656365697665645D
:10047000207369676E616C3A2025642025640A0048
:10048000A023011000800020000100203000002087
:100490005C0000204800002066777665720000004E
:1004A000000000000146FB4A086810600020704709
:1004B00030B58BB0012417E02246F7A102A808F05E
:1004C000E5FE002301AA0AA902A80EF04CF9054690
:1004D000002D02DA28460BB030BDE1B2F148019A96
:1004E000006804F082FB641C072CE5DDED48006821
:1004F00004F093FBEC48006804F0ADFC0020EAE750
:1005000070B504460D462078532809D1A07A3038BA
:10051000C6B23146E3482A68006804F009FC07E0E7
:1005200020784D2804D1DF482968006803F00CFFCB
:1005300000F09AFF28B1DB48006804F06EFB00F081
:100540009CFF70BD38B504460D4600226946D7A011
:100550000EF009F9D3480099006804F0F6FB38BDA5
:1005600038B504460D460022D749D8A00EF0FBF856
:10057000D5480088009068460DF09AFD38BD10B54A
:10058000B6B02DA80EF0DCFB01243CE02246C2A14F
:1005900025A808F07BFE2246D0A10CA808F076FE24
:1005A00000202DA920228123CDE9002102900CAA50
:1005B000012125A80EF058F82246CDA125A808F063
:1005C00065FE2246CF490CA808F060FE00200146D7
:1005D0000290CD4814230CAACDE90010811525A85E
:1005E0000EF042F800220BA925A80EF0BCF8E1B2EB
:1005F000AC480B9A006804F09BFBAFF2FB0125A806
:100600000DF064FE641C072CC0DD00204FF020417B
:100610000290BE481423BE4ACDE900104FF4807109
:10062000BCA00EF021F8AFF22711BAA00DF04EFEDB
:1006300000204FF040410290BA481423BA4ACDE955
:1006400000100021B9A00EF00FF8002001210B4688
:10065000BC4ACDE900100146BBA00EF005F8002011
:100660004FF4FA610423BC4ACDE9001099018FA030
:100670000DF0FAFFAFF233118CA00DF027FE002031
:1006800040F2EE210223B54ACDE90010D9018FA036
:100690000DF0EAFFAFF237118CA00DF017FE00202D
:1006A0004FF47A710223AE4ACDE900100146ADA0A5
:1006B0000DF0DAFF00204FF47A710223AC4ACDE945
:1006C00000100146ABA00DF0CFFF00201421042341
:1006D000AF4ACDE900100146AEA00DF0C5FF0022E3
:1006E00009A9A0A00EF03FF8002208A9A1A00EF0D1
:1006F0003AF8002207A9A7A00EF035F800220AA9AF
:1007000091A00EF030F8002205A982A00EF02BF87F
:10071000002204A985A00EF026F8002206A963A0F5
:100720000EF021F80022684968A00EF01CF89DF830
:1007300028000090BDF82020BDF824105948079BE0
:10074000006803F05BFC57480599006803F0FCFD66
:1007500054480499006804F0FBFA5248069900686E
:1007600004F0F3FA58480088359035A80DF0A0FC45
:10077000FFF79EFE36B010BD70B50546042010F0A0
:100780004FF8060004D0304604F0F2FA064600E0C6
:100790000020454908604FF4247010F041F804002F
:1007A00007D0804A40480168204602F011FA04460A
:1007B00000E000203B4908607B4928460FF079F8AB
:1007C00000227AA17C4800680FF039FA7B49088042
:1007D0000846B0F90000002802DA4FF0FF3070BD83
:1007E000FFF7CDFE0020FAE72DE9F04F95B0064661
:1007F0000C4617469846DDE91FABDDF878900BA84C
:100800003988B8F80020B9F80030BAF800C0018083
:1008100042808380A0F806C000BF2078012802DB58
:100820002078072804DD4FF0FF3015B0BDE8F08FC9
:100830006348006828B963A00DF06CFE6FF00100FA
:10084000F3E723780BAA5E491648006803F068FFB7
:1008500021781448006804F0BDF905463068E86165
:100860000BAA574902A803F074FC002102A803F068
:1008700037FDA861227808A10DA808F007FD002027
:100880002B462022812100900DA80DF09BFFFFF741
:100890000FFEA5E00C0000207369676E617475722D
:1008A0006525640004000020000000205369676E85
:1008B000617475726520746561636820746872651F
:1008C00073686F6C64000000080000204C454420F1
:1008D0006272696768746E6573730000436F6C6F52
:1008E00072207369676E61747572652025640000FB
:1008F0005369676E61747572652025642072616E3C
:1009000067650000804D0110000004409999B93FCF
:10091000204D01104D696E206272696768746E65C2
:1009200073730000CCCCFC3FD84D0110436F6C6F4B
:100930007220636F6465206D756C7469706C696595
:1009400072000000BC4C0110436F6C6F7220636F2B
:100950006465206D6F646500184B0110184C011020
:10096000D04A01104D617820626C6F636B73000098
:10097000704A01104D617820626C6F636B73207058
:100980006572207369676E6174757265000000009E
:10099000A44B01104D696E20626C6F636B20617215
:1009A00065610000001009101C3A0110676574525F
:1009B0004C534672616D6500040100201000002058
:1009C000140100204E6F20726177206672616D65A0
:1009D00020696E206D656D6F7279210A000000003C
:1009E000F9A00DF097FD0121584600F050FD0020C0
:1009F0001BE72DE9F04F8FB004460F4690461D4689
:100A0000DFF8D49315B90FB0BDE8F08F0020B22203
:100A1000CDE90A020C900D9002200021CDE90610CC
:100A2000CDE90810CDE90210CDE90410412064237E
:100A30004FF49032CDE90010494628460FF0C2FC31
:100A4000064600BF20684FEA800AA068834609EB8B
:100A500006005246594608F0DEFD00BF20688000BF
:100A60004FEA500AB2200221CDE90B0ACDE909185C
:100A70000846C8210222CDE90707CDE905214FF438
:100A8000A07141231898CDE90130CDE90321D34865
:100A900064234FF490324946009028460FF092FCB0
:100AA00000BF206806EB800A5246494628460FF0F0
:100AB0009CFC00BFA7E72DE9F04F97B007460C4616
:100AC00090469946DDF880A00BAD4FF0000B00205A
:100AD00028600BF1100068606868C14A0146019007
:100AE00004200FF054FFA86000BF2078012802DB2B
:100AF0002078072807DD0BA810F044FF4FF0FF30E7
:100B000017B0BDE8F08FB748006848B9AFF24C1095
:100B10000DF000FD0BA810F035FF6FF00100EFE7BE
:100B200016A8B8F8003019B2B9F800301AB201802E
:100B3000428000BF054620780BAB2A46A9490090A9
:100B4000A948006804F017F82178A748006804F065
:100B500041F806463868F0610BAAA24902A803F0E2
:100B600016FB002102A803F0BBFBB0610320534633
:100B70000422114600900BA8FFF73BFF2278AFF24A
:100B8000E8210EA808F082FB0020334620228121B4
:100B900000900EA80DF016FEFFF78AFC8AA00DF05B
:100BA000B9FC0121504600F072FC0BA810F0EAFEDF
:100BB0000020A5E770B592B004460D4602A80EF0DD
:100BC000BFF82078012802DB2078072803DD4FF0EA
:100BD000FF3012B070BD202102A808F0B5FD2278C8
:100BE000AFF24C310AA808F051FB002002AB2022E2
:100BF000812100900AA80DF0E5FD0646FFF758FC9C
:100C0000FFF756FC0121284600F041FC3046E0E7A2
:100C100070B592B0064602A80EF092F8202102A804
:100C200008F092FD012415E02246AFF294310AA8A3
:100C300008F02CFB002002AB2022812100900AA8A2
:100C40000DF0C0FD0546002D02DA284612B070BD39
:100C5000601CC4B2072CE7DDFFF72AFC01213046F7
:100C600000F015FC0020F1E7F0B589B004460D4610
:100C700016464FF0FF3007900120089008A80CF0AE
:100C8000A5FC071E02DA384609B0F0BDA6B1002067
:100C900007AACDE903020590069004200346CDE99A
:100CA000010500945148B0F9002000215048006827
:100CB0000EF0A0FF0798E7E700200422CDE90250DC
:100CC0001346CDE9004204904848B0F900200121C4
:100CD000474800680EF08EFF0020D5E72DE9F04F61
:100CE0008BB082460F4643480A90DFF80C81DFF84C
:100CF000E8904846A8EB00050020B122CDE90602A5
:100D00000890099002200021CDE90210CDE90410DD
:100D1000412064232A46CDE90010494650460FF091
:100D200051FB04463548006804F095F8012240461E
:100D30000A99FFF799FF83462D1BED0809EB040183
:100D40002A462E48006804F046F806460121284845
:100D500000680EF0FDFF0021F000B122C823CDE9AC
:100D60000632CDE9080102204FF4A071CDE90270EE
:100D7000CDE904104120224964232A46CDE9001020
:100D8000494650460FF01EFB04EBC602494650464A
:100D90000FF02BFB58460BB0BDE8F08F10B50446A2
:100DA00001212046FFF79AFF10BD30B504460B46DF
:100DB0002568002102E0505C6854491C186888428C
:100DC000F9D8186830BD00005369676E6174757298
:100DD0006520736574210A0000000810424C5431EC
:100DE0000105011014010020040000201000002063
:100DF000040100200010091000000910000000206C
:100E000043435132F0B58BB007460C4615461E469B
:100E1000002105EB850020F00040CDE908410A9152
:100E200007908220C82142224FF4A073CDE90332FB
:100E3000CDE9051041215E4BCDE9016200916422AC
:100E4000002138460FF042F800200BB0F0BD2DE92C
:100E5000F0438FB007460C4615461E46DDE916895D
:100E6000002108EB480080004008CDE90B610D919E
:100E70000A90822105EB850020F00040CDE90610A4
:100E8000C820CDE9084142214FF4A072CDE90212F9
:100E9000CDE904104120474B64220021CDE900092F
:100EA00038460FF013F800200FB0BDE8F0832DE9AD
:100EB000F0410546280244F62061B0FBF1F414B974
:100EC0000120BDE8F081204611F082FA80464046BC
:100ED00010F066FA0746384911F09AFA064611F002
:100EE00069FA0446FF2C01D9FF2401E004B901246A
:100EF000E0B2E6E7F0B587B000213048006803F0C3
:100F000009F80446002C4BD0208807280ADC2088EA
:100F1000401E00EB800129480068E03000EB8100B2
:100F2000066901E026480668A0886188401A218980
:100F3000E288891A00FB01F73846FFF7B8FF05463B
:100F400004AB05AA06A9304605F04FFD049820B170
:100F500004986843000A401C00E0002004900598B3
:100F600020B105986843000A401C00E0002005906D
:100F7000069820B106986843000A401C00E0002053
:100F800006900698C0B203900598C0B202900498EB
:100F9000C0B201AA02A9019003A80CF0E1F905E092
:100FA0000020039003A80DF0CFFA00BF07B0F0BDFA
:100FB0004343423143434232000048420400002090
:100FC000C43A01101CB5002000900123E94A0146F3
:100FD0000190E9A00DF048FB002000900123EAA257
:100FE00001460190F8A00DF03FFB0022F849F6A061
:100FF0000DF0B9FB1CBD70B504460C200FF010FCC1
:10100000050004D0284601F0DAF8054600E000208B
:10101000F0490860F04920460EF04BFC0022EFA199
:10102000EF4800680EF00BFEEE4908800022EEA1AA
:10103000EB4800680EF003FEED4908800022EDA1A8
:10104000E74800680EF0FBFDEC490880FFF7BAFFA7
:10105000002070BD02460B4613B1E948C2610FE0A3
:10106000002105E0082902DB4FF0FF307047491CE2
:10107000E34850F821000028F4D1E14840F821204D
:101080000020F3E7DF48007810B1DE4800787047B1
:10109000DD48007808B10220F9E70020F7E70020DA
:1010A000DA49087070470120D8490870D54908709E
:1010B0000020704738B50446207858B120780828B9
:1010C00005DC2078401ECE4951F8200010B94FF0C1
:1010D000FF3038BD0020CE4908602078D8B9002202
:1010E0006946A5A00DF03FFB9DF8000018B19DF8E2
:1010F0000000082802DD0020C64908709DF80000A5
:10110000401EBF4951F8200020B19DF80000401E4C
:10111000C049087003E02078401EBE490870FFF700
:10112000C2FFD6E770B506460C463046FFF7C2FF51
:101130000546002D01DA284670BDB54920680860D3
:101140000020F9E710B500240CE0AD4850F8240069
:101150004368AB4850F82400611C0268AEA00DF053
:10116000D9F9641CA64850F824000028EDD110BD20
:1011700010B586B00446AB4903C9CDE9040154B1AA
:10118000002004AACDE90020062382220146029015
:1011900020460EF09BFE002006B010BD7FB5044631
:1011A0000D4612262088B04203DB4FF0FF3004B01A
:1011B00070BD9DB1002120889B4B03EBC0004068AF
:1011C000A123CDE90101009303912088964951F8AC
:1011D0003030A122002128460EF078FE0020E6E7FC
:1011E00010B586B00446002005AACDE9010203909F
:1011F0000123009404907B48B0F900200021784836
:1012000000680EF0F7FC89480470059806B010BD20
:101210001FB5002003AACDE90020034602907748BD
:10122000B0F9002000216E4800680EF0E3FC03983E
:1012300004B010BD1FB5002003AACDE9002003466D
:1012400002906B48B0F900200021654800680EF05C
:10125000D1FC0398C0B204B010BD10B5FFF78FF9F0
:1012600004F0D3FC0CF03EFC0CF054FD00F08FFDBC
:10127000FFF7A8FE10BD10B50DF0D6FB554800686D
:1012800001F058F8604908700DF032FD08B1FFF721
:10129000E4FF10BD38B5002401E0601CC4B258481A
:1012A00050F824000028F8D121464A48006801F08F
:1012B00029F9C0B200906846FFF7FCFE38BD08B5BA
:1012C00000250026FFF7E6FFCDE0594800680EF044
:1012D000FBFF0446FFF7CFFF052D49D2DFE805F0FD
:1012E00003193A3FAC005348007828B90020009019
:1012F00068460DF029F900BF4149464A127851F875
:10130000221088688047002801DA032500E00125C3
:10131000A7E03D48007818B1FFF77AFF022518E0F2
:101320003A48007840B136493A4A127851F82210CA
:10133000C8688047002801DA03250AE04EB144B9A5
:101340000CF03EFE002000906846FFF7B3FE00253B
:1013500000BF86E02C48007800B9002581E000201D
:101360002A49087027490870FFF752FF042578E0E2
:1013700075E000008855011044656661756C742045
:1013800070726F6772616D0040632045787065729E
:101390007420536574732074686520646562756792
:1013A000206C6576656C20666F72207468652066B7
:1013B00069726D776172652E202864656661756C4F
:1013C0007420302900000000446562756700000049
:1013D0001C00002028000020E43A011072756E0005
:1013E000040100201E00002072756E6E696E670099
:1013F0002000002073746F700000000022000020A5
:10140000C00100201400002017000020150000205B
:10141000180000201600002025643A2025732C2097
:1014200025730A004C3C0110BC3B01102400002035
:10143000000100202C0000201D48007818B1FFF7A3
:1014400032FE00250AE014B11A48007830B90020B5
:1014500000906846FFF72EFE002500BF01E003253F
:1014600000BF00BF264630E710B5FFF7E3FE044695
:101470000CB1FFF7CDFE204610BD10B50E48006838
:1014800003F0E9FC0D480078FFF7AAFE10BD3EB559
:1014900004460D4654B100200421094B6422CDE9D5
:1014A00000150290182120460EF010FD3EBD0000F0
:1014B00015000020DF000020000000202400002094
:1014C000455654311CB50120019001A80CF07EF85E
:1014D0008248006803F0A1FB8148006803F0BBFC70
:1014E0000020FFF77DFE00BF04F0E6FB0446006825
:1014F000012269468368204698470028F4D179493B
:1015000008701CBD30B587B004F0D6FB044600253A
:1015100097E07448007820B1012809D002287DD1D5
:1015200021E0FF207049087001206E49087085E0B5
:101530002068012206A983682046984790B16A482E
:101540000078000269490880084600889DF8181054
:101550000843664908809DF8180063490870022016
:10156000604908706AE061480088FF2821D120683E
:10157000C1682046884704285BDB2068022205A951
:101580008368204698472068022204A98368204681
:101590009847002005A9039003A80BF0C3FF012082
:1015A00004A9039003A80BF0BDFF00204D4908706B
:1015B0003FE04E480088FE280DD12068012206A990
:1015C00083682046984750B306A80CF043FD0020DE
:1015D000444908702DE045480088FD2826D1206840
:1015E000C16820468847032823DB2068012203A91D
:1015F0008368204698472068012202A98368204614
:1016000098472068012201A983682046984701AACB
:1016100002A903A80BF0A4FE012001E00AE008E003
:101620003349087000202F49087002E001202D493D
:10163000087003E000202B49087000BF00BF681C41
:10164000C5B20A2DFFF665AF07B030BD10B586B044
:101650002248006802F025FA00280EDA25480078B2
:1016600040B1254801680068401C234B186023A046
:101670000CF050FF002006B010BDFFF743FF02A89A
:1016800004AB03AA05A900901448006802F0A7FC67
:1016900001200299CDE900101B48DDE903230599DB
:1016A0000068FFF7D4FB04F007FB044600680169FB
:1016B000204688470E48007808B9FFF71BFC01E078
:1016C000FFF720FF06490868016889880268D28808
:1016D000891A0029F4D00020CDE700000400002082
:1016E000000000202D0000204200002040000020CB
:1016F0002C0000201C0000204400002064726F7049
:101700002025640A0000000000010020002070472E
:101710002DE9F14F98B0FE481390002012901190DF
:101720001090FC48007860B1FA48007810F050FE44
:10173000054610F038FE40B2F74908700020F54920
:101740000870F54890F90000012814DDF24890F97E
:10175000000080B20E90BDF83800801E00EBC00182
:1017600001EB001080B20E9001200EA90F900FA87F
:101770000BF0D8FE00BF00204FF47A41B122C823FD
:10178000CDE90632CDE9081002214FF4A072189875
:1017900002AB07C341200591E04964234FF4903226
:1017A000CDE90010DE48139900680EF00BFE14908E
:1017B000C8204FF4A0710022CDE900210290149AB4
:1017C000C2F59031139B9818002321220BF0EAFFF9
:1017D00000201790169015AA16A9159017A80BF0BF
:1017E000BFFDCB4914984418052589E1681C87B2D0
:1017F000681E1FFA80F9A81E80B20F90A81C1FFA5D
:1018000080FA002010901190129005266BE1701C58
:101810001FFA80F8701E80B20E90B01C1FFA80FB79
:10182000B01E80B20D9005EB850108EB8111615C63
:1018300007EB87020BEB8212A25C114407EB8702D5
:1018400008EB8212A25C05EB85030BEB8313E35CD0
:10185000D01800EBD07201EB62010C9105EB850210
:101860000E9901EB8211615C07EB870206EB821295
:10187000A25C0A4407EB87030E9901EB8311615CBC
:1018800005EB850306EB8313E35CC81800EBD0710E
:1018900002EB61010B9107EB870106EB8111615CA3
:1018A0000AEB8A0208EB8212A25C11440AEB8A025C
:1018B00006EB8212A25C07EB870308EB8313E35C61
:1018C000D01800EBD07201EB62010A9107EB87019F
:1018D00008EB8111615C0AEB8A020BEB8212A25CBD
:1018E00011440AEB8A0208EB8212A25C07EB870321
:1018F0000BEB8313E35CD01800EBD07201EB6201B9
:10190000099107EB87020E9901EB8211615C0AEBEA
:101910008A0206EB8212A25C0A440AEB8A030E9941
:1019200001EB8311615C07EB870306EB8313E35C38
:10193000C81800EBD07102EB6101089109EB890135
:1019400006EB8111615C05EB850208EB8212A25C5B
:10195000114405EB850206EB8212A25C09EB8903B8
:1019600008EB8313E35CD01800EBD07201EB62014B
:10197000079109EB890108EB8111615C05EB850298
:101980000BEB8212A25C114405EB850208EB82127C
:10199000A25C09EB89030BEB8313E35CD01800EB2B
:1019A000D07201EB6201069109EB89020E9901EBFD
:1019B0008211615C05EB850206EB8212A25C0A448F
:1019C00005EB85030E9901EB8311615C09EB89033B
:1019D00006EB8313E35CC81800EBD07102EB6101E6
:1019E000059102230C9A099913FB021206990A44E5
:1019F0000899521A0B9903FB11220599511A01EB10
:101A0000410010F0DEFC04900223079A059913FBB5
:101A1000021206990A440899521A0A9903FB1122E4
:101A20000999511A01EB410010F0CBFC0390049886
:101A300020F0004101910399019810F096FC02906A
:101A40003849029810F03DFD0BD23749049810F048
:101A5000C7FC06D2FF2005EB850106EB811160541F
:101A600005E0002005EB850106EB811160542D494E
:101A7000049810F026FD06D2012011901298401C07
:101A800080B212901096119858B1049880F00040DE
:101A90002449019010F0A4FC03D21298401C80B29B
:101AA00012901198E8B1049880F000401D4901900F
:101AB00010F007FD15D2129809280FDA002105EB66
:101AC0008502109800EB82102154002005EB85015F
:101AD00006EB811160541190129002E000201190E9
:101AE0001290B01C86B2304610F0DCF900220F4B89
:101AF000CDE90C0110F0EAF9FFF489AEA81C85B21B
:101B0000284610F0CFF906460022094B12E00000EB
:101B1000000008109400002058000020434D563269
:101B2000000100200000984100C8AF4700C073408A
:101B30000080684010F0CAF9FFF458AE052569E04E
:101B4000A81C1FFA80F9A81E1FFA80FA052656E085
:101B500005EB850006EB8010205CFF284DD1B31CFF
:101B600099B2B31E9AB2002005EB850301EB8313F3
:101B7000E35C0BB9431CD8B205EB850302EB83137E
:101B8000E35C0BB9431CD8B209EB890306EB831362
:101B9000E35C0BB9431CD8B20AEB8A0306EB831350
:101BA000E35C0BB9431CD8B20AEB8A0301EB831345
:101BB000E35C0BB9431CD8B20AEB8A0302EB831334
:101BC000E35C0BB9431CD8B209EB890301EB831327
:101BD000E35C0BB9431CD8B209EB890302EB831316
:101BE000E35C0BB9431CD8B2042805DD002305EBE8
:101BF000850706EB8717E35500BFB01C86B2304659
:101C000010F050F907460022504B10F05FF99FD3B7
:101C1000A81C85B2284610F045F9064600224C4B18
:101C200010F054F98CD3DFF82C9154E0DFF828A1A0
:101C30003FE0484610F0BEFB85B2504610F0BAFBBC
:101C4000C0B200EB800005EB8010205C80B14846FC
:101C500010F0A9FB05B2504610F0A5FB00B2801EA3
:101C600000EB800005EB8010401EFF21215425E091
:101C7000484610F098FB06B24FF07E51504610F0E7
:101C800074FB054610F08FFB00B200EB800006EB02
:101C90008010401CFF212154504610F03BFB0746AA
:101CA00000224FF0804310F04BFA05460FF0BCFEC7
:101CB00082462A49504610F004FCBAD3484610F038
:101CC00029FB074600224FF080430FF0DFFE054658
:101CD0000FF0AAFE81462249484610F081FBA5D3A9
:101CE00000201590FF20169017AA16A9179015A886
:101CF0000BF036FB149A02F57A421A4813990068E1
:101D00000EF073FB19B0BDE8F08F00B587B0164830
:101D10000068A8B9212006900020059004904FF497
:101D2000A0700390C82002900E48006802A903AB7F
:101D300004AACDE9001005A906A80CF077F902E085
:101D40000120FFF7E5FC002007B000BD00C0734094
:101D5000008068400000E04000003D43000020415A
:101D600000009D43000100201800002038B5044603
:101D70004FF4FA702060208880B26946009004F128
:101D800008000BF0CFFB38BDC160026170471FB582
:101D900000204FF4AF71042377A2CDE90010802119
:101DA00084A00CF061FC00204FF41671042384A27F
:101DB000CDE90010802190A00CF056FC00204FF4DB
:101DC000FA7104238FA2CDE9001080219CA00CF0B1
:101DD0004BFC00204FF42F7104239CA2CDE900108E
:101DE0008021A9A00CF040FC002203A971A00CF0F6
:101DF000BAFC002202A980A00CF0B5FCA548DDE9E0
:101E00000221FFF7C1FF002203A98DA00CF0ABFC5B
:101E1000002202A99CA00CF0A6FC9F48DDE902214B
:101E2000FFF7B2FF1FBD08B50120009068460BF018
:101E3000CDFBFFF7ACFF9748FFF798FF9648FFF7F9
:101E400095FF9648006808B1FEF732FB9448006899
:101E500003F001F80020FFF7C3F9002008BDF8B532
:101E600004460D466068B0F1004F22D06068281A21
:101E700021694843E16805FB01004FF47A7190FB4A
:101E8000F1F62068304420602068B0F57A7F02DDEA
:101E90000846206004E02068002801DA0020206065
:101EA000208880B26946009004F108000BF03AFBEC
:101EB00000BF6560F8BD2DE9F04186B07948006843
:101EC00001F0EFFD00217748006802F023F8044696
:101ED000E4B1A1886288881A00EBD07102EB61013D
:101EE0008FB22189E288881A00EBD07102EB610180
:101EF0001FFA81F8C7F1A005A8F1640629466548D4
:101F0000FFF7ADFF31466448FFF7A9FF02A804AB15
:101F100003AA05A900906348006802F060F8012058
:101F20000299CDE900106048DDE9032305990068B6
:101F3000FEF78DFFFEF7DEFF002006B0BDE8F08162
:101F400010B54FF4FA7404600172C2600361640753
:101F5000446010BD00B54FF448734FF4FA7200218D
:101F60004C48FFF7EDFF4FF461734FF42F720121DE
:101F70004948FFF7E5FF00BD40632050616E2F74B4
:101F8000696C745F44656D6F2050616E2061786983
:101F9000732070726F706F7274696F6E616C2067FE
:101FA00061696E202864656661756C742033353014
:101FB0002900000050616E2050206761696E0000AA
:101FC00040632050616E2F74696C745F44656D6F5F
:101FD0002050616E20617869732064657269766152
:101FE00074697665206761696E202864656661752D
:101FF0006C7420363030290050616E2044206761B7
:10200000696E000040632050616E2F74696C745FCC
:1020100044656D6F2054696C742061786973207019
:10202000726F706F7274696F6E616C206761696E38
:10203000202864656661756C742035303029000095
:1020400054696C742050206761696E0040632050B1
:10205000616E2F74696C745F44656D6F2054696C98
:102060007420617869732064657269766174697639
:1020700065206761696E202864656661756C7420EF
:10208000373030290000000054696C742044206708
:1020900061696E00E0010020F401002014010020BD
:1020A0000000002004000020000100202DE9FF4F67
:1020B00085B01E46DDE90501884201D2059800E0A1
:1020C000069804460798844201D2204600E007980B
:1020D0000446DDE90501884201D9059800E006982B
:1020E00007460798874201D9384600E00798074617
:1020F0000599091B4943069A121B069B1B1B02FBF1
:102100000311079A121B079B1B1B02FB031010F005
:102110005FF9814648460FF027FA804610F04AF9E9
:1021200005461E2D00D91E250A2D02D20020019041
:1021300012E0284610F04CF98246304610F048F97B
:102140008346FB4910F064F98146514610F060F96E
:10215000804610F02FF901900198B0F57A6F02D9FE
:102160004FF47A60019001A80BF0A2FF05A807C800
:1021700004F02CFC814604F05AFC804607AB06AA0A
:1021800005A904F032FC0598C0B204900698C0B2CC
:1021900003900798C0B202AA03A9029004A80BF00A
:1021A000DFF809B0BDE8F08F38B504460020207292
:1021B000009068460CF0C8F90020207038BD10B5BA
:1021C00004462046FFF7F0FF204610BD704738B5A3
:1021D00005460C4668460FF099F900BF00980FF0CD
:1021E000D7F8A042FAD30CF01FFC38BDF8B504466E
:1021F0000D46002615E00020009068460CF0A4F97A
:102200004EF660212046FFF7E2FF6178C94A02EBF3
:1022100081000CF099F94EF660212046FFF7D7FFB8
:10222000761CAE42E7DBF8BD7FB504460020039084
:10223000A020029064200190002001AB02AA611C42
:10224000009003A8FEF737FC0546002D00DA7FBD9D
:102250000121B9480068FFF71AF904212046FFF769
:10226000C5FF00BFF3E738B504466078072800DDF6
:1022700038BD0020009068460CF066F94EF66021EB
:102280002046FFF7A4FF6178AA4A02EB81000CF018
:102290005BF900BFECE72DE9F04194B0074610ACC4
:1022A00000250020206005F110006060A34AD4F8EA
:1022B0000480414604200EF06AFBA06000BF0FA816
:1022C000002181704170017000BF13A8A021642219
:1022D0000180428000BF044610AB224698499948CD
:1022E000006802F070FB032000909348042211461E
:1022F000036810A8FEF77DFB10AA914902A801F01F
:1023000046FF0BA902A801F0EBFF06460CAB0DAA95
:102310000EA9304604F069FBDDE90B32DDE90D1052
:10232000FFF7C4FE10ACA0680EF069FA00BF14B04D
:10233000BDE8F08130B589B004460EF0C9FE05460F
:10234000207AD0B1212008900020079006904FF409
:10235000A0700590C820049000207749096804AA5D
:1023600005ABCDE90021029006AA07A908A80BF049
:10237000F3FF2046FFF78FFF19E02078B8B1212046
:1023800008900020079006904FF4A0700590C82098
:10239000049001206849096804AA05ABCDE9002131
:1023A000029006AA07A908A80BF0D6FF00BF207864
:1023B00006287AD2DFE800F00316315B6C9585B110
:1023C000201D0FF0A3F860480088089008A80BF0C3
:1023D0006FFE012020700020089008A80CF0B4F8CF
:1023E00000BF87E015B90020207015E060680EF08E
:1023F000CFFF564988420FD90AF0C8FE10B101201C
:10240000607001E000206070201D0FF07FF8204612
:10241000FFF729FF022020706CE09DB903212046C0
:10242000FFF7E4FE201D0FF071F8607828B9012055
:10243000089008A80AF0FAFE01E0012020720320AB
:10244000207013E060680EF0A3FF414988420DD967
:10245000201D0FF05BF86078401C607060780828E1
:1024600001D1002060702046FFF7FDFE42E02DB153
:10247000201D0FF04BF80420207008E060680EF07B
:1024800087FF3449884202D92046FFF78DFE31E0AC
:102490009DB9607850B90020089008A80AF0C6FEDF
:1024A00004212046FFF7A2FE03E01FE02046FFF7CD
:1024B000BBFE2046FFF778FE12E060680EF068FF72
:1024C000224988420CD9607828B90020089008A8D1
:1024D0000AF0ACFE00BF2046FFF766FE0520207024
:1024E00008E015B92046FFF75FFE03E02046FFF73E
:1024F0005BFE00BF00BF207810B1012009B030BDE5
:102500000020FBE72DE9F04104460D46012D02DCD9
:102510000020BDE8F0816AE00EF0DAFD06460CF01E
:1025200083FA2078C0B101281FD002285AD138E0A0
:102530008FC2753CC43A0110000100200105011052
:10254000140100200400002008000020D012130015
:1025500040420F0000879303201D0EF0D7FF01209B
:1025600020702046FFF77FFE40E056B1201D0EF0A0
:10257000CDFF012060702046FFF775FE022020701D
:102580000EE060680EF004FF1949884208D9042162
:102590002046FFF72BFE2046FFF706FE0020B8E797
:1025A00024E04EB9677804212046FFF71FFE20463D
:1025B000FFF7FAFD3846ACE760680EF0E9FE0D491A
:1025C00088420ED9201D0EF0A1FF6078401C60707B
:1025D0006178681C814201D1012060702046FFF7BC
:1025E00042FE03E02046FFF7DFFD00BF00BF93E798
:1025F00060E3160040420F0070B5044600BF0020A3
:10260000206200BF401EA082400C608220828111A7
:10261000A08861F3CB00A080608961F3CB0060816A
:1026200005E0A569A868A06128460EF0ECF8A0694D
:102630000028F6D104F11800E06170BD10B5044621
:102640000020A06104F11800E0612046FFF7D4FFEC
:10265000204610BD10B504462046FFF7CDFF2046AA
:1026600010BD4189C1F3C80140F2FF12914208D068
:10267000D0F80A104160C1890181418962F3CB0120
:102680004181704710B5B0F910408C4201DD0CB2A9
:102690000482B0F91240944201DD14B24482B0F9D0
:1026A00014409C4201DA1CB2848210BDF8B5044685
:1026B0000D46A888C0F309032888C0F3C8026888BB
:1026C000C0F309012046FFF7DDFF6089C0F3C800B1
:1026D00040F2FF11884205D12868C4F80A00A88892
:1026E000E08103E0A888C0F30900E08100BF6A88A8
:1026F000C2F30902501EAA88C2F309010A1A009205
:1027000000BF694604F120000EF074F8FE4800781E
:10271000D8B1FE490C200EF097F8060009D03046DB
:1027200029680160A98881800021816000BF064678
:1027300000E00020E1690860E069006800B9F8BDC8
:10274000E06900680830E06100BF00BFF7E770B5DE
:1027500005460C4604F1200105F120000EF04AF870
:10276000B4F91430B4F91220B4F910102846FFF768
:1027700089FF2089C0F309012889C0F3090081423B
:1027800003DD2089C0F309002881DF48007848B1C3
:10279000A069E9690860E069E8610020A06104F1CE
:1027A0001800E06170BD0021016181604160011D80
:1027B000C1604FF0FF3101800121818200218161E0
:1027C000704770B50446606800B905E04FF4EA72DE
:1027D000CFA1D5A006F070FE0020A060401E208092
:1027E0000020A0610BE020690568206928B12069FC
:1027F000FFF730FF06460EF006F8256100BF20699E
:102800000028F0D170BD10B503460BE05868FFF703
:1028100028FF586804685968186908605868186182
:102820005C6000BF58680028F0D110BD10B50446A8
:102830002046FFF7E8FF2046FFF7C3FF204610BD04
:102840002DE9FF4105460E4631E034682046FFF78A
:1028500008FFB5F90000A188C1F3C801401AB5F915
:102860001410884220DD206830606846218A039178
:10287000618A0291A18A0191A188C1F3C8010180F6
:1028800000BFBDF90000BDF90810401A012803DDA2
:10289000286920602C6109E044B12046FFF7DAFE88
:1028A00007460DF0B0FF01E0BDE8FF8100BF3068D2
:1028B0000028CAD100BFF7E710B50446A068E06061
:1028C000E0680068A060A06818B12046A168FFF722
:1028D000B7FF10BD10B50446211D2046FFF7B0FF1D
:1028E000201DE060E0680068A060A06818B1204684
:1028F000A168FFF7A5FF10BD2DE9F04704460D467E
:102900002888C0F3C800B4F90010884206D028888F
:10291000C0F3C80020802046FFF7DCFF40E0688855
:10292000C0F30901A0680089C0F30900814203DDFA
:102930002046FFF7C1FF33E0A888C0F30901A06873
:10294000C088C0F30900814200DA2CE02946A06863
:10295000FFF7ACFE14E0A06807683868A16808605B
:102960003946A068FFF7F3FE2FB13846FFF772FE35
:1029700081460DF048FF2046A168FFF761FF00BFC8
:10298000A068006848B1A888C0F30901A068006881
:10299000C088C0F309008142DDDA0020BDE8F0877D
:1029A000A0680028BBD100BF584924200DF04CFF7F
:1029B0005FEA000804D04046FFF740FE804600E092
:1029C000002006464EB95C48007818B15BA0A169AA
:1029D0000BF0A0FD4FF0FF30E0E7A069401CA061C4
:1029E000A0683060E0680660E66029463046FFF780
:1029F0005DFE0020D2E70246002001E0401C09688D
:102A00000029FBD1704770B5054614461960216056
:102A100008461A4608E0066806B906E0006812682B
:102A2000066806B901E00068F5E700BF16681E6099
:102A30000026166070BDF0B50646059D2C4628465A
:102A400038E034B30F6827B3B0B11768A7B117687F
:102A50003F6AD1F800C0DCF820C067450CDD17687C
:102A6000D3F800C0CCF800701F683F681F601F6873
:102A70003F681760401E1DE00F68D3F800C0CCF817
:102A800000701F683F681F601F683F680F60641E0A
:102A900010E070B1176867B11768D3F800C0CCF8C0
:102AA00000701F683F681F601F683F681760401E06
:102AB00000E0F0BDC5E730B587B00446206908B92D
:102AC00007B030BD05AB06AA20462169FFF79BFF82
:102AD000012549E000200490039004A8029003A877
:102AE00001900DE002AB05AA06A920460095FFF76C
:102AF000A2FF01AB05AA06A920460095FFF79BFFA0
:102B000006980028EED123E0740000202948011027
:102B10002E2E5C2E2E5C636F6D6D6F6E5C626C6F23
:102B2000622E6370700000002161637469766542F3
:102B30006C6F6273000000001C000020626C6F620A
:102B4000732025640A686561702066756C6C0000EE
:102B500005980028C6D10199086002990860049878
:102B60000690039805906D0005980028B2D106984C
:102B7000206100BFA4E770B50646306900B970BD9A
:102B800035692C680DE0286A216A884200DB06E07E
:102B900040F2CD12AFF2880104A006F08DFC25466C
:102BA0002C68002CEFD100BFE9E70000692D3E6DD5
:102BB0006F6D656E74732E61726561203E3D206A93
:102BC0002D3E6D6F6D656E74732E617265610000D0
:102BD0002DE9F04104460E4617463946204601F0DD
:102BE000DEFB044607231C22FE4904F5D2700DF0DB
:102BF000BCFEA0F5D274002004F51674A077142052
:102C0000A06264202084142060840520A085002018
:102C1000606344F8B86C0620E085002084F830003A
:102C20004FF47A700DF0F3FD20610020A082A084A3
:102C3000E084A4F51674002508E0C5EBC50204F590
:102C4000D27101EB8200FFF7BCFD6D1C072DF4DB98
:102C50002046BDE8F08110B50446D4F868020DF0B6
:102C6000CEFD07231C22E04904F5D27006F0EAFDF0
:102C7000204601F0CBFB0446204610BDF0B50646C9
:102C80000B461446002500210022002022E033F8E4
:102C900011702FB90AB903EB4102471CB8B215E015
:102CA0009AB133F8117017804F1C33F817705780A2
:102CB0008F1C33F817709780CF1C33F81770D780AC
:102CC0000F1D33F8177017810A3200BF6F1CBDB299
:102CD0004F1DB9B2A542DADBF0BD2DE9FE4F0C461F
:102CE0001546A1886288881800EBD0714E102189A2
:102CF000E288881800EBD0714F10A9886A8888187C
:102D000000EBD0714FEA61082989EA88881800EB46
:102D1000D0714FEA6109A7EB09000FF052FB009058
:102D2000A8EB06000FF04DFB0190DDE900010EF06D
:102D3000C5F98346AD490FF06BFBAD4902900FF02A
:102D400029FB824650460FF02EFB00B2BDE8FE8FF5
:102D50002DE9F0418AB0064600200024002521E03C
:102D600051F82080274604F1010C1FFA8CF44DF82D
:102D70002780431C10E051F823703F7807F00707C5
:102D800051F820C09CF800C00CF0070C674501D139
:102D9000012500E004E05B1CB2F900709F42EADC10
:102DA00000BF1846B2F90070874201DD0A2CD7DB5C
:102DB00055B1002004E05DF8207041F82070401CFF
:102DC000A042F8DB27B217800AB0BDE8F0812DE9F8
:102DD000F04106461C469CB18F88B1F802C007EB53
:102DE0000C0505EBD5777F10B2F804C0B2F802806D
:102DF0000CEB080000EBD07CA7EB6C073BB212E0B9
:102E00000F89B1F806C007EB0C0505EBD5777F10ED
:102E1000B2F808C0B2F806800CEB080000EBD07CDA
:102E2000A7EB6C073BB2002B03DA584200B2BDE8B7
:102E3000F0811846FBE72DE9F04F85B082460D463C
:102E400016461F4600240BE055F82420394650460C
:102E50000E9BFFF7BCFF80B22DF81400601C84B2FB
:102E6000B44201DA0A2CEFDB28E00124A3461DE07E
:102E7000601E3DF810003DF81410884214DD3DF846
:102E80001480601E3DF810002DF81400601E2DF80F
:102E9000108055F8249055F8200045F82400601E55
:102EA00045F820904FF0000B601C84B2B44201DA68
:102EB0000A2CDDDBBBF1000F00D000E0D5E700BF3E
:102EC00005B0BDE8F08F2DE9F04F8CB0144600201E
:102ED0008246CDF828A0CDF82CA05CE051F820A0C7
:102EE000BAF804A051F820B0BBF802B0AAEB0B0A64
:102EF00051F820B0BBF808B051F820E0BEF806E069
:102F0000ABEB0E0B0AFB0BF24FF0640A02FB0AFA62
:102F10004FF4FA7BBAFBFBF74FF4C87A02FB0AFACC
:102F20004FF0640BBAFBFBFA0AEB020C00230026FD
:102F300022E0984200D11EE051F823A0BAF804A084
:102F400051F823B0BBF802B0AAEB0B0A51F823B03A
:102F5000BBF808B051F823E0BEF806E0ABEB0E0B6F
:102F60000AFB0BF8474505D8E04503D806F1010AEE
:102F70001FFA8AF600BF5B1CB4F900A09A45D8DCA2
:102F8000DDF828A0564505DD0A9691464FF0010A66
:102F9000CDF82CA0401CB4F900A082459EDCDDF8E1
:102FA0002CA0BAF1000F03D14FF0000AA4F800A042
:102FB000002000253EE051F820A0BAF804A051F806
:102FC00020B0BBF802B0AAEB0B0A51F820B0BBF856
:102FD00008B051F820E0BEF806E0ABEB0E0B0AFBA0
:102FE0000BF207E047260010CD2600100000344306
:102FF000560E49404FF0640A02FB0AFA4FF4FA7B7E
:10300000BAFBFBF74FF4C87A02FB0AFA4FF0640BE5
:10301000BAFBFBFA0AEB020C4F450AD8E14508D887
:1030200051F820B0AA4605F1010E1FFA8EF54DF8B1
:103030002AB0401CB4F900A0824501DD0A2DBADB9C
:10304000002004E05DF820A041F820A0401CA84228
:10305000F8DB0FFA85FAA4F800A00CB0BDE8F08FF9
:1030600070B503460C46D3F86812002013E000EB5D
:10307000800531F8155025F0070595420AD100EB7F
:10308000800511F8155005F00705254300EB800673
:1030900021F81650401CB3F86C528542E7DC70BD35
:1030A0002DE9F04782460D461646688801B2A88889
:1030B00007B2E88802B228890FFA80FC708803B250
:1030C000B0880FFA80F8F08804B230890FFA80F9DE
:1030D00099420EDBA24201DC644505DD4A4508DC6D
:1030E000E14501DD944204DCA1EB080000B2BDE83B
:1030F000F0878B420CDBA24201DC644505DD4A45CA
:1031000006DCE14501DD944202DCD81B00B2EEE7AB
:10311000A2420DDB994201DCBB4205DD414507DCE3
:10312000B84501DD8B4203DCA2EB090000B2DEE70B
:1031300094420DDB994201DCBB4205DD414507DCD1
:10314000B84501DD8B4203DCA4EB0C0000B2CEE7F6
:1031500047F6FF70CBE770B504460D461646288843
:1031600028B1308818B128883188884201D10020E0
:1031700070BD94F88802022807D0287800F0070173
:10318000204601F0E8FD01280BD194F888020228BE
:1031900009D0307800F00701204601F0DCFD01285D
:1031A00001D00020E4E7324629462046FFF778FFA9
:1031B000B4F88612884201DC0120D9E70020D7E765
:1031C0002DE9F04F99B0074600201690B7F86C1221
:1031D00001EB8101D7F8680200EB410AD7F8684299
:1031E0003FE004F10A0639E0324621463846FFF74F
:1031F000B2FF20B32088072814DC3088072811DCB0
:103200001698401C80B216904FF6FF71169801EA8E
:10321000C009208840EA09002080308840EA09007F
:1032200030801AE0208807280ADD3088072807DC6C
:10323000208820F00709308840EA090030800CE03F
:103240003088072809DD2088072806DC308820F030
:103250000709208840EA090020800A365645C3D372
:103260000A345445BDD3D7F8684225E020880728A2
:1032700000DC20E0208820F0070904F10A0617E0AE
:103280003088072800DC12E0308820F00700179013
:10329000179881450AD0324621463846FFF75BFF32
:1032A00020B149463846179AFFF7DAFE00BF0A36C2
:1032B0005645E5D300BF0A345445D7D3D7F8680242
:1032C00000F577700B904FF0010BD7F8708200205B
:1032D000A7F8740257E14FF6FF7000EACB0900200F
:1032E0001890D7F868420EE0208820F00700484583
:1032F00008D1BDF9601088B2401C00B2189001A836
:1033000040F821400A34544503D2BDF960000A2830
:10331000EADB18AA01A93846FFF7D5FDBDF9600020
:10332000022800DA2BE1002500200C900D9012906D
:1033300013901490159045E001A9159851F82000BC
:10334000408851F825104988884200DD159501A96B
:10335000139851F82000C08851F82510C988884278
:1033600000DD139501A9149851F82000808851F8C8
:1033700025108988884200DA149501A9129851F81D
:103380002000008951F825100989884200DA129539
:1033900001A850F82500808801A951F82510498816
:1033A000411A0D9808440D9001A850F82500008995
:1033B00001A951F82510C988411A0C9808440C90AD
:1033C000681C05B2BDF960008542B5DBBDF960102F
:1033D0000D9890FBF1F00D90BDF960100C9890FBEA
:1033E000F1F00C9001A9159851F820004088A8F838
:1033F0000200149851F820008088A8F8040013985F
:1034000051F82000C088A8F80600129851F8200052
:103410000089A8F80800149851F82000818801AAB2
:10342000159852F820004088081A642148430F90EC
:103430000D990F9890FBF1F00F9001A9129851F897
:1034400020000189139852F82000C088081A6421CE
:1034500048430E900C990E9890FBF1F00E90DDE928
:103460000E1088420CDD012001A90090159851F83A
:103470002030BDF8600082B23846FFF7DCFC0BE07C
:10348000002001A90090139851F82030BDF8600089
:1034900082B23846FFF7CFFC18AA01A93846FFF7D9
:1034A00057FCBDF96000022800DA68E0BDF9600051
:1034B000052801DD0520189000250020119010E05E
:1034C0004FF6FF71119801EAC000119001A850F861
:1034D0002500007800F00700119908431190681C3E
:1034E00005B2BDF960008542EADBBDF86000401E10
:1034F00005B20020109015E04FF6FF71109801EA18
:10350000C000109001A850F82500007800F00700D6
:10351000109908431090002001A951F82510088047
:10352000681E05B2002DE7DADDE9101088420FDAD7
:103530001198A8F80000BDF96000401E01AB53F8D7
:10354000202038460199FFF7C8FBA8F80A000EE0D2
:103550001098A8F80000BDF96000401E01AB53F8B8
:1035600020103846019AFFF7B8FBA8F80A0008F1C6
:103570000C08B7F87402401CA7F8740200BF0BF1E6
:1035800001000FFA80FB1698834503DC0B988045F9
:10359000FFF4A1AED7F8684219E097F88802032833
:1035A00005D12088072811DD002020800EE020882A
:1035B000072809DC97F88802022805D021783846C8
:1035C00001F0C9FB012801D1002020800A345445B4
:1035D000E3D319B0BDE8F08F2DE9FC4F96460024E7
:1035E00000220020009053E031F8120000B94BE0B7
:1035F000501C31F81050901C31F81060D01C31F87C
:103600001070101D31F810C0601C80B20190501D68
:1036100083B235E031F8130000B92BE0581C31F8C3
:103620001080981C31F81090D81C31F810A0181D8B
:1036300031F810B045450DDC4E450BDB574509DC34
:10364000DC4507DB002021F813000098401C80B205
:1036500000900EE0A8450CDCB1450ADBBA4508DC59
:10366000E34506DB002021F812000098401C80B2E0
:10367000009000BF0198401C80B20190581D83B299
:1036800001987045C6DB00BF601C84B2501D82B239
:103690007445A9DB0098BDE8FC8F2DE9F74F83B096
:1036A00082460020029000230090A5E031F813002C
:1036B00000B99BE0581C31F810C0981C31F81080FC
:1036C000D81C31F81090181D31F810B00298401C29
:1036D00080B20190581D82B281E031F8120000B929
:1036E00077E0501C31F81040901C31F81050D01C7D
:1036F00031F81060101D31F81070644518DCACEB27
:103700000500BAF884E2704512DCB14501DC5E4583
:1037100003DDB9450CDC5F450ADC581C21F810407C
:10372000002021F812000098401C80B200904FE069
:10373000454518DBA4EB0800BAF884E2704512DCBA
:10374000B14501DC5E4503DDB9450CDC5F450ADCB3
:10375000981C21F81050002021F812000098401CFD
:1037600080B2009034E04E4518DCA9EB0700BAF8AF
:1037700084E2704512DCA44501DC444503DDAC4520
:103780000CDC45450ADCD81C21F81060002021F82B
:1037900012000098401C80B2009019E05F4517DBD2
:1037A000A6EB0B00BAF884E2704511DCA44501DCFD
:1037B000444503DDAC450BDC454509DC181D21F80B
:1037C0001070002021F812000098401C80B2009078
:1037D00000BF0198401C80B20190501D82B2DDF8FC
:1037E00014E001987045FFF678AF00BF0298401CC6
:1037F00080B20290581D83B2DDF814E00298704543
:10380000FFF654AF009806B0BDE8F08F70B50546DE
:10381000002410E0C4EBC40205F5D27101EB820074
:10382000FEF7F1FFC4EBC40205F5D27101EB820093
:10383000FFF741F9641C072CECDB70BD2DE9FC415E
:1038400006460C4617461D46DDF820809DF8000010
:1038500064F302008DF80000BDF8000067F3CB00B0
:10386000ADF80000A8B2ADF8020005EB080080B288
:10387000ADF80400611EC1EBC10206F5D27101EB87
:1038800082006946FFF738F8BDE8FC812DE9F04F6A
:103890008BB006464FF0FF3800200A90002506A89E
:1038A00000210180C1804180818000BF00200590FF
:1038B000E5E000BF06A9D6F8A00101F064FA0028EF
:1038C000F8D0BDF818004FF6FE71884200DBD7E053
:1038D0000598002800DAD2E0BDF8180018BB4FF6B2
:1038E000FF7008900020099075B1AAEB0700401CFA
:1038F00080B20090781E83B21FFA88F2E9B2304697
:10390000FFF79CFF0590002508F101080A98411C6B
:103910000A91052806D10121FE4800680CF018FA2A
:1039200000200A90ABE0BDF8180000F00704BDF9D4
:103930001C000490BDF91A0003900498C003049081
:103940000398C0030390BDF81E000290029808B9C6
:10395000012002900299049890FBF1F00490DDE9B7
:10396000021090FBF1F00390601E00EB800106F165
:10397000E00050F82110049881426FDA601E00EBDD
:10398000800106F1E00000EB81004168049881426B
:1039900064DD601E00EB800106F1E00000EB8100B9
:1039A00081680398814259DA601E00EB800106F1BC
:1039B000E00000EB8100C168039881424EDDD6F83B
:1039C0006C110298814249DCBDF81800C010ADF8B6
:1039D0001800BDF818900898A9EB0000052804D835
:1039E0000998A04201D1012000E0002083462DB9B2
:1039F000BBF1000F02D02546089F14E09DB1A542FF
:103A000002D1BBF1000F0ED1AAEB0700401C80B21F
:103A10000090781E83B21FFA88F2E9B23046FFF7B1
:103A20000DFF0590002525B1BBF1000F01D0CA465E
:103A30000FE075B9BBF1000F0BD102200090A9F186
:103A4000010083B21FFA88F2E1B23046FFF7F6FEBA
:103A500005900994CDF8209010E0FFE775B1AAEB2E
:103A60000700401C80B20090781E83B21FFA88F2D3
:103A7000E9B23046FFF7E2FE0590002500BF18E7E7
:103A800000BF3046FFF7C2FEBDF818004FF6FE71CA
:103A9000884204D14FF0FF300BB0BDE8F08F00201A
:103AA000FAE72DE9F04F87B004462046FFF7EEFE17
:103AB000002815DA002508E0C5EBC50204F5D2712F
:103AC00001EB8200FEF77DFE6D1C072DF4D3002074
:103AD000A4F86C02A4F87402401E07B0BDE8F08F91
:103AE0004FF00009012084F876020020C4F88C020F
:103AF0000025A4F86C02A4F8740295E094F88802FA
:103B0000022806D0681CC1B2204601F024F9012821
:103B100001D1012000E000208246B4F86C0200EBE5
:103B200080064FF0000BD4F8680200EB46000690C8
:103B3000B4F86C020590C5EBC50104F5D27000EB3A
:103B4000810007694CE0BAF1000F03D000BF386A6A
:103B50000A2808DBBAF1000F06D100BF386AD4F892
:103B60008012884200DA38E001A8398A0491798A03
:103B70000391B98A0291B988C1F3C801018000BFDD
:103B8000BDF80400BDF80C10401A012800DC24E048
:103B9000681C04F51A74216821F81600BDF810108D
:103BA000701C226822F81010BDF80810B01C2268A2
:103BB00022F81010BDF80C10F01C226822F810102A
:103BC000BDF80410301D226822F81010A088401C97
:103BD000A080A4F51A74761D00BF3F680BF1010B9D
:103BE0004FB1B4F86C02B4F87812884203DAB4F832
:103BF0007A025845A7D8BAF1000F14D111E0B4F8F1
:103C00006C120598081A82B220460699FFF745FD06
:103C10008046B8F1000F00D104E009EB08001FFA5C
:103C200080F9ECE700BF6D1C072DFFF467AFB4F817
:103C30006C222046D4F86812FFF7CEFC48441FFAE5
:103C400080F994F8880260B1B4F86C1201EB81013C
:103C5000D4F8680200EB4100C4F870022046FFF778
:103C6000AFFAB9F1000F02D194F8880268B1B4F844
:103C70006C222046D4F86812FFF700F88046B4F8AA
:103C80006C02A0EB0800A4F86C020020A4F87C02EF
:103C9000A4F87E0284F87602002508E0C5EBC50290
:103CA00004F5D27101EB8200FEF78BFD6D1C072D30
:103CB000F4D3002011E72DE9F04703468C469046E7
:103CC00061460827B8F1120F02D20020BDE8F08744
:103CD00093F8760228B9B3F87E02B3F87492484597
:103CE00001DB0020F2E7B3F87C0240B9B3F87E02B2
:103CF00028B94AF655200880781C87B2891C4AF6F4
:103D00005620088003F51C73B3F80E9009EB49099F
:103D1000186801E00001002030F8292014468A804C
:103D2000B3F80E9009EB4909186800EB8900808808
:103D3000B3F80EA00AEB4A0AD3F8009009EB8A09FF
:103D4000B9F80290A0EB090085B2601984B24D81E8
:103D5000B3F80E9009EB4909186800EB8900008957
:103D6000B3F80EA00AEB4A0AD3F8009009EB8A09CF
:103D7000B9F80690A0EB090086B2A01984B28E8132
:103D8000B3F80EA00AEB4A0AD3F8009009EB8A09AF
:103D9000B9F80290284605EBD07A09EB6A091FFAB8
:103DA00089F2A01884B2CA80B3F80EA00AEB4A0ABE
:103DB000D3F8009009EB8A09B9F80690304606EB73
:103DC000D07A09EB6A091FFA89F2A01884B20A8135
:103DD000B3F80E9009EB4909186800EB8900408997
:103DE00082B2A01884B2CA814C80D889401CD88184
:103DF000A3F51C734FF6FF7000EA470066E72DE954
:103E0000F74F0446019D4FF0070BB4F87C0200EB1E
:103E100080070298102802D20020BDE8FE8FB4F877
:103E20007C02B4F86C12884208DB94F8880228B14E
:103E30002046DDE90112FFF73EFFEEE794F8760237
:103E400028B9B4F87C02B4F86C12884201DB002077
:103E5000E3E7B4F87C0238B94AF6552028800BF124
:103E600001001FFA80FBAD1C4AF65520288004F59E
:103E70001A74206830F81760B046AE80B81C21680C
:103E800031F81010781C226832F81000081A1FFA56
:103E900080F908EB09001FFA80F8A5F80A90381D90
:103EA000216831F81010F81C226832F81000081A46
:103EB0001FFA80FA08EB0A001FFA80F8A5F80CA098
:103EC000791C226832F81110484609EBD07201EBD8
:103ED00062018EB208EB06001FFA80F8EE80F91C32
:103EE000226832F8111050460AEBD07201EB6201E1
:103EF0008EB208EB06001FFA80F82E81A5F802802A
:103F0000A08A401CA082A4F51A744FF6FF7000EA44
:103F10004B0082E72DE9F04302460F46002F48D1BF
:103F2000D2F88C0218B1D2F88C02BDE8F0830021DF
:103F30008C4618E001EB8108D2F8680200EB4803D8
:103F40009888B3F80280A0EB0800B3F80880B3F8B3
:103F50000690A8EB090800FB08F6664502D9B446AE
:103F6000C2F88C32491CB2F86C028842E2DC0021B3
:103F700018E001EB4108D2F8700200EB8804A08839
:103F8000B4F80280A0EB0800B4F80880B4F80690FA
:103F9000A8EB090800FB08F6664502D9B446C2F84A
:103FA0008C42491CB2F874028842E2DCD2F88C02DE
:103FB000BBE7002100250CE0D2F8680230F81500BC
:103FC000B84204D1D2F8680200EB4500ADE7491CC5
:103FD0006D1DB2F86C028842EEDC0020A5E730B51A
:103FE000039CD0F868520D60B0F86C521560D0F8A0
:103FF00070521D60B0F87452256030BD30B5044673
:10400000039D642902DCA4F8781202E06420A4F87D
:104010007802A4F87A22C4F8803284F8885200200A
:1040200030BD2DE9FF4F83B00D4692461E46DDF8A8
:1040300040B000200190804647F6FF70009044E0B9
:1040400000243CE04FF000090020029018E055F8F1
:10405000290056F8241088420BD055F82900007822
:1040600000F0070056F82410097801F00701884293
:1040700002D10120029005E009F101000FFA80F958
:10408000D145E4DB00BF029800B116E056F82420C9
:1040900055F828100398FFF703F8074600998F4258
:1040A0000ADA009755F828101198016056F8241084
:1040B000129801600120019000BF601C04B25C45B1
:1040C000C0DB08F101000FFA80F8D045B8DB019899
:1040D00007B0BDE8F08F7047FEB504460D460DB140
:1040E00000202062E069F8B1E0690168206A81423D
:1040F0001BDDD4E907010DF092FC408886B2D4E9BB
:1041000007010DF08CFC008887B20420034632467C
:104110003946009001A80CF003FA0168A1604068DC
:10412000E060206A401C206201E00020FEBD00200B
:1041300060612061608940F00100B4F904202168C9
:1041400000FB0210218941F001010844A061012017
:10415000ECE770B504460D46164620460CF0EDF926
:10416000044604F108000CF0E2F9A0F10804D5E9D6
:104170000001C4E900013068A0607068E0600020C0
:10418000E06101212046FFF7A7FF204670BD70B512
:1041900004460D46164620460CF0CFF9044604F1BD
:1041A00008000CF0C4F9A0F10804D5E90001C4E945
:1041B0000001E66101212046FFF78EFF204670BD19
:1041C0002DE9F04F03460D464FF0260A66E0988928
:1041D000D3F810B083450BD3002018615869801CB8
:1041E0005861B3F90400D3F818B00BEB40009861A4
:1041F000D889D3F814B0834502D30020BDE8F08FEE
:10420000D3F810B0986910F80B101869401ED3F855
:1042100018B01BF80060B3F904004042D3F810B0A6
:104220005844D3F818B01BF80070B3F904004042AA
:10423000D3F810B05844401ED3F818B01BF8004013
:1042400042B11170F01900EBD07BCBF3470B82F831
:1042500001B09470EDB1881900EB040CD44503DA79
:104260001869801C186119E0881BC00390FBFCF8DA
:10427000C81900EB040CD44503DA1869801C1861D6
:104280000CE0E01BC00390FBFCF9C5F80080C5F80A
:1042900004901869801C18610120AFE797E770B59A
:1042A00004460D461646E069A0B13246294620462E
:1042B000FFF786FF08B1012070BD00212046FFF7FF
:1042C0000BFF28B1324629462046FFF779FFF3E776
:1042D0000020F1E7324629462046FFF771FFEBE761
:1042E0002DE9F84381460D466846002181704170F2
:1042F000017000BF01214846FFF7EEFE0020044692
:1043000080460746064609E09DF8000006449DF8F1
:10431000010007449DF802008044641C6A460021A5
:104320004846FFF7BCFF0028EED1B6FBF4F6B7FB1A
:10433000F4F7B8FBF4F805B12C60300440EA07202C
:1043400040EA0800BDE8F88370B504460D462946EA
:10435000FA480EF05DF806460EF02CF8C4F86C0131
:10436000D4F86C0110B90120C4F86C0170BD10B50F
:10437000024600200FE021B90023D2F870412354F7
:1043800008E0D2F870311B5C8B4203D10023D2F8D5
:1043900070412354401CB0F5805FECDB10BD70B55C
:1043A00004460E4607232022E54920460CF0DDFA9C
:1043B0000446C4F87061E021204605F0C5F98C215F
:1043C00004F1E00005F0C0F900212046FFF7CFFF1F
:1043D000DC492046FFF7B8FF4FF07A50C4F87C0163
:1043E000C014C4F87401D848C4F878014FF07F5065
:1043F000C4F88001002505E0D44904F5C27040F8F6
:1044000025106D1C072DF7DB204670BD70472DE988
:10441000F04705460C46012C01DB072C01DDBDE809
:10442000F087601EC4B205EB4410C069012809D1B1
:1044300005F5C27252F82400D5F880110DF0E8FF9E
:10444000064603E005F5C27050F8246005EB441100
:10445000096805EB44129268881A0DF0B2FF824693
:1044600031460DF0D5FF804605EB441188680DF00C
:10447000A8FF814641460DF078FF07460DF093FFF7
:1044800004EB840205F1E00141F8220005EB441140
:10449000496805EB44129268881A0DF092FF824633
:1044A00031460DF0B5FF804605EB441188680DF0EC
:1044B00088FF814641460DF058FF07460DF073FF17
:1044C00004EB840205F1E00101EB8201486005EB99
:1044D0004411C96805EB44125269881A0DF071FF46
:1044E000824631460DF094FF804605EB4411486941
:1044F0000DF067FF814641460DF037FF07460DF08E
:1045000052FF04EB840205F1E00101EB82018860B7
:1045100005EB4411096905EB44125269881A0DF044
:1045200050FF824631460DF073FF804605EB441183
:1045300048690DF046FF814641460DF016FF0746DB
:104540000DF031FF04EB840205F1E00101EB820183
:10455000C86005EB4411886902F069FA04EB840233
:1045600005F1E00101EB8201086100BF57E72DE989
:10457000F04F89B08B4614469A4607A80CF036F9DE
:104580004FF0000900210D460E460F4688460020D8
:10459000069005900490039001215846FFF79CFD7A
:1045A00025E007982168884202DD0398401C0390AB
:1045B00007986168884202DA0498401C04900898C1
:1045C000E168884202DD0598401C05900898216941
:1045D000884202DA0698401C06900798451946EB77
:1045E000E0760898C71948EBE07809F101094FF027
:1045F000000207A95846FFF752FE0028D1D14846CD
:104600000DF0E6FE029003980DF0E2FE0190029993
:104610000DF0C0FECAF8000048460DF0D9FE029029
:1046200004980DF0D5FE019002990DF0B3FECAF882
:10463000040048460DF0CCFE029005980DF0C8FE2F
:10464000019002990DF0A6FECAF8080048460DF048
:10465000BFFE029006980DF0BBFE019002990DF08E
:1046600099FECAF80C004A4600232846314604F059
:10467000D6FDA0604A4600233846414604F0CFFDEF
:10468000606109B0BDE8F08F2DE9FF4106460F4695
:1046900014464FF0804500202061E060606020609B
:1046A0003AE06B46224639463046FFF760FFD6F8BF
:1046B000781100980DF005FF03D22068284420608F
:1046C00002E02068401B2060D6F8781101980DF0B8
:1046D000F8FE03D26068401B606002E06068284416
:1046E0006060D6F8781102980DF0EBFE03D2E06816
:1046F0002844E06002E0E068401BE060D6F87811F2
:1047000003980DF0DEFE03D22069401B206102E019
:104710002069284420616D10002DC2D1BDE8FF81C1
:10472000F0B589B005460E4617461C46012C01DB44
:10473000072C0DDD4FF0FF3009B0F0BD00403F44C5
:10474000E1EB0010CDCCCC3D6666663F000020401A
:104750003A4631466846FFF7FCFC05EB4410A0F1F1
:10476000200269462846FFF78FFF0021601E05EBF7
:104770004010C16121462846FFF749FE0020DBE7D3
:1047800030B504465BB90888042806DB0888001F9A
:1047900008808888001D88802EE0012030BD012B14
:1047A0000BD14888042806DB4888001F4880C88849
:1047B000001DC88020E00120F0E7022B0DD1088801
:1047C0008D882844001DB2F90450A84201DD012063
:1047D000E4E78888001D88800EE0032B0CD1488810
:1047E000CD882844001DB2F90650A84201DD012001
:1047F000D4E7C888001DC8800020CFE72DE9F04F1E
:104800008BB08A469346994609A80BF0EFFF002427
:10481000524659466846FFF79CFC00210D460E465D
:104820000F46884609E00998451946EBE0760A9854
:10483000C71948EBE07804F101044FF0000209A920
:104840006846FFF72CFD0028EDD1224600232846BC
:10485000314604F0E4FCC9F8000022460023384643
:10486000414604F0DCFCC9F804000BB0BDE8F08F51
:104870002DE9FF4F89B082460D461C46DDF858B041
:1048800007A80BF0B3FF0420034600221146009056
:1048900005A80BF045FE2888ADF814006888ADF82F
:1048A0001600A888E988884201DD012000E0002088
:1048B0000490049808B1A88800E0E88803904FF0BD
:1048C0000008C14668E007AB05A950460B9AFFF700
:1048D00095FF2168079A891A49436268089BD21A92
:1048E0006368089E9B1B02FB03100DF06AFD02909B
:1048F00002980CF039FE074638460DF05BFDDAF8F9
:104900007411884237D200BFDBF8000006462068E9
:1049100080FB06310798C21718185141CDE90001F4
:10492000701CC3170246009804F079FC2060606890
:1049300080FB06310898C21718185141CDE90001D3
:10494000701CC3170246009804F069FC6060BDF853
:10495000160002B2BDF8140001B202A80BF07DFEF1
:104960000146019058460CF0F1FF002800DA16E0ED
:1049700009F1010900BF049830B1BDF81400001D11
:1049800080B2ADF8140005E0BDF81600001D80B23D
:10499000ADF8160008F104080398804593D300BFD2
:1049A00003980DF015FD029048460DF011FD4FF0F3
:1049B000814101900DF02CFD064602990DF0EAFCB4
:1049C0000DB0BDE8F08F2DE9F04F87B080468946E5
:1049D00016461F4605A80BF0AAFD03A80BF0A7FD7D
:1049E00001A80BF003FF0025308880B2ADF8140059
:1049F000708880B2ADF8160000234A4605A94046EB
:104A0000FFF7BEFE10B145F001050EE0BDF816003F
:104A100002B2BDF8140001B268460BF01EFE8346D8
:104A2000594638460CF092FF00BF01234A4605A9BB
:104A30004046FFF7A5FE10B145F002050EE0BDF8B7
:104A4000160002B2BDF8140001B268460BF005FE74
:104A50008346594638460CF079FF00BF02234A4688
:104A600005A94046FFF78CFE10B145F004050DE0A6
:104A7000BDF8160002B2B6F9001068460BF0EDFD65
:104A80008346594638460CF061FF00BF03234A466F
:104A900005A94046FFF774FE10B145F0080503E094
:104AA000314638460CF052FF01AB4A4605A9404654
:104AB000FFF7A4FE5AE0002456E0DDE90501CDE948
:104AC00003010120A040284000B14BE01CB90020A8
:104AD000ADF8100020E0012C03D10020ADF8120049
:104AE0001AE0022C0BD1BDF80C00BDF810100844E0
:104AF00080B2ADF80C000020ADF810000CE0032CE3
:104B00000AD1BDF80E00BDF81210084480B2ADF80D
:104B10000E000020ADF8120023464A4603A9404685
:104B2000FFF72EFE20B10120A0402843C5B218E0B7
:104B300001AB4A4603A940460097FFF799FE82461B
:104B40005046D8F87C110DF04BFC04D20120A04057
:104B50002843C5B205E023464A4605A94046FFF76B
:104B60000FFE00BF601CC4B2042CA6DB0F2DA2D127
:104B700007B0BDE8F08F2DE9F0418AB005460F4639
:104B800090461E46109C012C01DB072C04DD4FF0E3
:104B9000FF300AB0BDE8F081334642463946284628
:104BA000FFF711FF3246394601A8FFF7F0FA05EB8F
:104BB0004410A0F1200201A92846FFF765FD00215D
:104BC000601E05EB4010C16121462846FFF71FFC1F
:104BD0000020DEE70246012901DB072901DD002074
:104BE000704702EB41102038FAE770B505460C46D5
:104BF0001646012C01DB072C02DD4FF0FF3070BDA3
:104C0000611E05EB41102022314604F049FD21468A
:104C10002846FFF7FCFB0020F1E72DE9F84F04469A
:104C200000212046FFF7A3FB002605E0701CC1B25F
:104C30002046FFF7ECFB761C072EF7DB002672E020
:104C400000276DE04FF0000866E0F01900EB080B5C
:104C5000D4F86C01584500DD5CE0F01BC00390FB0C
:104C6000FBF9A8EB0700C00390FBFBFA00254EE020
:104C700004EB4510006820B904EB4510406800B90A
:104C800044E005EB850104F1E00050F821004845BF
:104C90003BDA05EB850104F1E00000EB81004068A0
:104CA000484532DD05EB850104F1E00000EB8100B1
:104CB0008068504529DA05EB850104F1E00000EB3E
:104CC0008100C068504520DDA6EB07094FEAE909DD
:104CD00009F03F09A8EB070A4FEAEA0A0AF03F0A7F
:104CE0000AEB89100090D4F870110098085C30B17C
:104CF000D4F870110098095C681C814205DD681CBD
:104D0000C1B2D4F870210098115400BF6D1C072D5A
:104D1000AEDB00BF08F10408B8F1FF0F95DD3F1DC1
:104D2000FF2F8FDD361DFF2E8ADD0020BDE8F88FB6
:104D300010B5012901DB072900DD10BD4B1E00F570
:104D4000C27444F8232000BFF7E7C0F8741170471D
:104D5000C0F8801170470246012901DB072901DDF7
:104D600000207047481E02EB4010C069F9E70000C0
:104D700010B50446464820601021206804F0C2FCAB
:104D8000204610BD704730B5024610688088146810
:104D9000E488001B83B2E3B110680488601C1568C6
:104DA00028801068083000EBC40004680C6040687C
:104DB00048601068C088401C1468E0801068008853
:104DC00040F27F74A04202D10020146820800120AC
:104DD00030BD0020FCE7F0B503460C461E68B688DF
:104DE0001F68FF88F61BB1B200201E68358817E0E7
:104DF0001E6808362F4605F1010C1FFA8CF506EBEC
:104E0000C70604EBC007D6F800C0C7F800C0766834
:104E10007E6040F27F76B54200D10025461CB0B2DC
:104E2000884201DA9042E3D31E68F6880E441F6878
:104E3000FE801E6836880E441F683E801E683688D5
:104E400040F27F77BE4205D31E683688A6F27F7691
:104E50001F683E80F0BD026892880368DB88D21A22
:104E600091B20268D2880A440368DA800268128824
:104E70000A4403681A800268128840F27F739A42DB
:104E800005D302681288A2F27F7203681A80704705
:104E900000C000200146F748814201D10020704740
:104EA000F548814201D10120F9E74FF0FF30F6E7E4
:104EB0000146082088612020086000BF086800F0D3
:104EC00008000028FAD020208861486800F0F80027
:104ED0007047016801F0200109B120218161102192
:104EE00001600821816170470246106800F02000CF
:104EF00008B120209061C8B290600820906100BF86
:104F0000106800F008000028FAD0506800F0F8009F
:104F100070470346012A02D10420186001E00420F2
:104F200098610820986100BF186800F00800002808
:104F3000FAD098680870586800F0F800704770B5AB
:104F400004460D46CB48844210D11A21092006F0B0
:104F500017F8CA48854204D340F68C40C849086017
:104F600016E040F60800C649086011E0C2488442D5
:104F70000DD11B21092006F003F8C120C1490860AA
:104F8000C149C1F81001C148854201D070BDFDE79B
:104F9000B5F57A7F00D2F9E76C20A061112006F008
:104FA0002FF8B0FBF5F6700820612069301A6061B7
:104FB00000BFEBE7402181617047012902D1402207
:104FC000026001E040228261704770B504460D46E0
:104FD0006DB1A848844203D1122000F0FCFB13E01D
:104FE000A548844210D1132000F0F5FB0CE0A14845
:104FF000844203D1122000F0F9FB05E09E48844270
:1050000002D1132000F0F2FB70BD2DE9F0410546FE
:105010002846FFF73FFF06469D4850F8364068682F
:1050200000F0F8076762F82F03D10820A861BDE8F7
:10503000F081974800EBC6004068002857D1202F28
:1050400048D006DC082F0BD0102F0AD0182F4CD1D7
:1050500015E0282F14D0302F3DD0382F45D13FE018
:1050600000BF2020A861606838B1A06828B120681E
:105070004000A8600820A86100E012E036E000BF10
:10508000D4E9021088420BD2606848B1E1686068D8
:10509000405CA860E068401CE0600820A86118E05F
:1050A00000BF01207A4901EBC6014860606958B130
:1050B000206948B1A06830B1606820B12020286024
:1050C0000C20A86105E031E0606A40F48060606215
:1050D0008DE00BE000BF606A40F40070606277E032
:1050E000606A40F48070606200BF71E08CE06848E4
:1050F00000EBC60040680128F8D1402F24D006DC20
:10510000082F0BD0102F0AD0382F60D15AE0482F2B
:1051100053D0502F25D0582F59D13CE000BF20202C
:10512000A861206950B1606940B100BF01212068C9
:1051300001EB4000A8600820A86104E0606A40F428
:105140008060606253E05EE0D4E90501401E814268
:1051500002D20420286001E00420A8610820A86190
:1051600051E0206950B1D4E90510884206D2A86800
:10517000A26921698854A069401CA061D4E9050195
:10518000401E814202D20420286001E00420A86170
:105190000820A86137E0206950B1D4E905108842A1
:1051A00006D2A868A26921698854A069401CA06140
:1051B000606A40F48060606219E0606A40F40070E8
:1051C000606205E0606A40F48070606200BF00BF0A
:1051D000D4E90710884209D20020E060202028602E
:1051E0000C20A861206A401C20620BE000BF002157
:1051F0002846FFF7EAFE2846FFF76BFE0120254907
:1052000041F8260000BF00BF00BF10E72DE9F041C4
:1052100004462046FFF73EFE80461D4850F83850B1
:10522000606800F0F806AE61F82E03D10820A06196
:10523000BDE8F08106F0070000287CD1F0100C38A2
:10524000142878D2DFE800F00F771077283B293C4C
:105250003F5A775B6E7777777777770A04202060FD
:105260000820A06173E000BF042020600820A06136
:105270006DE0000000100A4000000E4040420F00A8
:10528000846C08400C61084000600840801A0600E9
:10529000080200202002002000BFD5E90410884247
:1052A00008D2E86830B1A0686A69E968885468691A
:1052B000401C6861042020600820A06147E000BF16
:1052C0000820A06143E000212046FFF77EFE082071
:1052D000A06147030FE0206800F0080020B1012121
:1052E0002046FFF772FE07E07F1E27B9A86940F449
:1052F0008060A86120E0EEE700BF28E000BFD5E9AC
:105300000110884208D2286830B1A9682868405C3A
:10531000A060A868401CA860042020600820A0614C
:1053200015E008E0042020600820A061A86940F48E
:105330008060A86100E000BF00212046FFF745FE25
:105340002C20A0610120F84941F8280000BF00BFCF
:1053500000BF6DE72DE9F84306460C461746D4F822
:105360000480D4F810900020E060A0616062002FFB
:105370007ED1206200BFD4F80480D4F810900020C1
:10538000E060A06100253046FFF792FD0546082D3C
:105390000BD0102D09D0206A401C2062D4E90710E0
:1053A000884201D96562ABE0E5E7A068A0B3606818
:1053B00090B320784006010E3046FFF795FD054674
:1053C000182D0BD0206A401C2062D4E907108842B7
:1053D00003D945F40070606292E0CCE718E098F8D9
:1053E00000103046FFF780FD0546282D0BD0206ABF
:1053F000401C2062D4E90710884203D945F40070AC
:1054000060627DE0B7E708F10108E068401CE060F9
:10541000D4E902108842E2D3A068B8B16068A8B1AC
:10542000606998B1206988B13046FFF741FD0546B3
:10543000082D0BD0102D09D0206A401C2062D4E921
:105440000710884201D965625AE094E76069002834
:1054500050D0206900284DD02078012202EB400076
:10546000C1B23046FFF740FD0546402D0DD000E0AB
:105470004BE0206A401C2062D4E90710884203D91F
:1054800045F4007060623BE075E72FE0D4E9050168
:10549000401E814211D2012269463046FFF739FD94
:1054A0000546502D1BD0206A401C2062D4E907100D
:1054B000884201D9656223E05DE7002269463046F3
:1054C000FFF727FD0546582D09D0206A401C2062B1
:1054D000D4E90710884201D9656211E04BE79DF8D5
:1054E000000009F8010BA069401CA061D4E9051077
:1054F0008842CBD33046FFF7ECFC0120BDE8F883AF
:105500003046FFF7E6FC0020F8E7012F28D13046AF
:10551000FFF7C0FCC0B2009084489DF8001040F82E
:105520003140002081499DF8002001EBC201486014
:105530000820B0612020306001213046FFF745FD92
:1055400000BF7B489DF8001050F821000128F8D1D9
:10555000002077499DF8002041F822000120CDE786
:105560000020CBE72DE9F84F04460D461646D5F846
:105570000090D5F80CA00020A8606861A861002EFA
:1055800075D1042020602820A0610020009083466F
:105590006EE0206800F0080000285FD00020009036
:1055A000606800F0F80707F00700002852D1F810F3
:1055B0000C3814284ED2DFE800F00F4D104D15279F
:1055C00016282B324D33444D4D4D4D4D4D0A042080
:1055D00020600820A06140E000BF04202060082077
:1055E000A0613AE000BFD5E90410884207D2E8681C
:1055F00028B1A0680AF8010B6869401C68610420A2
:1056000020600820A06128E000BF0820A06124E0FD
:105610000820A061012000904FF0000B1DE000BFAA
:10562000D5E90110884207D2286828B119F8010B82
:10563000A060A868401CA860042020600820A06129
:105640000BE0042020600820A061012000904FF0B2
:10565000000B02E00820A06113E009E0009838B1D7
:1056600058460BF1010BB0F5803F01D901E00DE088
:105670008FE70420A06147F48060A8610120BDE8A5
:10568000F88F0420A061AF610020F8E7012E15D14A
:105690002046FFF7FFFB8046244840F838500120A1
:1056A000224901EBC8014860042020602820A06145
:1056B00001212046FFF789FC0120E0E70020DEE71A
:1056C00010B58B78012B00D100E000234C7843EA21
:1056D0004403DAB20B7833B1012B0AD0022B0ED07F
:1056E000032B18D111E0C260CB7803F0FE030363F3
:1056F00011E00262CB7803F0FE0444630BE04262E7
:10570000CB7803F0FE04846305E08262CB7803F07B
:10571000FE04C46300BF00BF10BD10B5012A09D14B
:10572000C3690B43C3610AE02C0200200802002079
:1057300020020020C36907248C432340C36110BDAD
:10574000012908D1C26942F00102C261042202604B
:105750002822826105E0C26902F00602C2612C22A1
:1057600082610022264B1A6070470146C86AC0B2A7
:10577000704730B50346002008249C61DC6A204D48
:105780002D684C551E4C2468641C1D4D2C602C4605
:105790002468944200D3012030BD70B505462846E8
:1057A000FFF778FB0446174850F82460002015499D
:1057B00041F82400304670BD70B505462846FFF715
:1057C00069FB0446104850F8246000200E4941F857
:1057D0002400304670BD00F01F02012191404209B3
:1057E000920002F1E022C2F80011704700F01F029F
:1057F00001219140054A430942F8231070470000F7
:1058000078000020200200202C02002080E100E02F
:10581000F8B50446A068406800F0F80707F00700F4
:10582000002872D1F8100C3814286ED2DFE800F08E
:1058300011821282193E1A3F404782487B7A828247
:105840008282820A0420A16808600820A168886119
:1058500074E000BF0420A16808600820A168886186
:105860006CE000BF04F10C05A0688068C6B200BF00
:1058700028460CF08EF82968081A002800DC0EE093
:10588000E968481CE860686846542869401C28613B
:105890002968E868884201D10020E86000BF042040
:1058A000A16808600820A168886147E000BF00BFC8
:1058B0000420A16808600820A16888613EE000BF5C
:1058C000207920B10020A1688860207123E000BF0A
:1058D000206B50B9626BD4E9091090472063206BAC
:1058E00008B900200BE00020E062E16A481CE06299
:1058F000A06A405C0090206B401E2063012028B10C
:105900009DF80000A168886005E013E00020A16810
:105910008860012020710420A16808600820A16827
:1059200088610BE000BF0420A16808600820A1681E
:10593000886103E02C20A168886100BF00BFF8BD2A
:1059400010B578480068FFF763FF10BD38B504460E
:105950000D468DF8015000208DF803008DF80000F1
:105960006946A068FFF7ACFE002038BD2DE9F0477E
:1059700005460F4690461E466B496C48286005F167
:105980000C044FF02009C4F8009020680AF03FFF93
:1059900060600020A060E0602061606100BFA4F151
:1059A0000C0505F12404C4F8009020680AF02FFFCC
:1059B00060600020A060E060266100BFA4F12405C3
:1059C000AF605B49A868FFF7BAFA41462846FFF77F
:1059D000BDFF17200021002807DA0A07140E554AD8
:1059E00000F00F031B1FD45403E00A07130E524AA2
:1059F000135400BF2846BDE8F08770B50446382030
:105A00000AF00EFF0546234654224C49FFF7AEFF2D
:105A100005464448056070BD382182689161442183
:105A200082681160704710B504460023F0220321FC
:105A300001200BF01DFD0423F022012102200BF0B8
:105A400017FD0423F022012102200BF011FD002399
:105A5000F022042101200BF00BFD0423F022002191
:105A600002200BF005FD002035490860207112204E
:105A7000012181404209920002F1E022C2F80011A6
:105A800000BF2046FFF7C8FF002010BD10B501463B
:105A90001220012282402B4B440943F8242000BFEE
:105AA000002010BD2DE9F04707460E469046002520
:105AB0001EE007F10C0406EB050920460BF069FF18
:105AC000002801DC002010E0A168481CA06060688C
:105AD000405C89F800006069401C60612168A06832
